{
  "_format": "hh-sol-artifact-1",
  "contractName": "DSNFT",
  "sourceName": "contracts/DSNFT.sol",
  "abi": [
    {
      "inputs": [
        {
          "internalType": "string",
          "name": "baseURI",
          "type": "string"
        }
      ],
      "stateMutability": "nonpayable",
      "type": "constructor"
    },
    {
      "anonymous": false,
      "inputs": [
        {
          "indexed": true,
          "internalType": "address",
          "name": "owner",
          "type": "address"
        },
        {
          "indexed": true,
          "internalType": "address",
          "name": "approved",
          "type": "address"
        },
        {
          "indexed": true,
          "internalType": "uint256",
          "name": "tokenId",
          "type": "uint256"
        }
      ],
      "name": "Approval",
      "type": "event"
    },
    {
      "anonymous": false,
      "inputs": [
        {
          "indexed": true,
          "internalType": "address",
          "name": "owner",
          "type": "address"
        },
        {
          "indexed": true,
          "internalType": "address",
          "name": "operator",
          "type": "address"
        },
        {
          "indexed": false,
          "internalType": "bool",
          "name": "approved",
          "type": "bool"
        }
      ],
      "name": "ApprovalForAll",
      "type": "event"
    },
    {
      "anonymous": false,
      "inputs": [
        {
          "indexed": true,
          "internalType": "address",
          "name": "previousOwner",
          "type": "address"
        },
        {
          "indexed": true,
          "internalType": "address",
          "name": "newOwner",
          "type": "address"
        }
      ],
      "name": "OwnershipTransferred",
      "type": "event"
    },
    {
      "anonymous": false,
      "inputs": [
        {
          "indexed": true,
          "internalType": "address",
          "name": "from",
          "type": "address"
        },
        {
          "indexed": true,
          "internalType": "address",
          "name": "to",
          "type": "address"
        },
        {
          "indexed": true,
          "internalType": "uint256",
          "name": "tokenId",
          "type": "uint256"
        }
      ],
      "name": "Transfer",
      "type": "event"
    },
    {
      "inputs": [],
      "name": "MAX_PER_MINT",
      "outputs": [
        {
          "internalType": "uint256",
          "name": "",
          "type": "uint256"
        }
      ],
      "stateMutability": "view",
      "type": "function"
    },
    {
      "inputs": [
        {
          "internalType": "address",
          "name": "to",
          "type": "address"
        },
        {
          "internalType": "uint256",
          "name": "tokenId",
          "type": "uint256"
        }
      ],
      "name": "approve",
      "outputs": [],
      "stateMutability": "nonpayable",
      "type": "function"
    },
    {
      "inputs": [
        {
          "internalType": "address",
          "name": "owner",
          "type": "address"
        }
      ],
      "name": "balanceOf",
      "outputs": [
        {
          "internalType": "uint256",
          "name": "",
          "type": "uint256"
        }
      ],
      "stateMutability": "view",
      "type": "function"
    },
    {
      "inputs": [],
      "name": "baseTokenURI",
      "outputs": [
        {
          "internalType": "string",
          "name": "",
          "type": "string"
        }
      ],
      "stateMutability": "view",
      "type": "function"
    },
    {
      "inputs": [
        {
          "internalType": "uint256",
          "name": "tokenId",
          "type": "uint256"
        }
      ],
      "name": "getApproved",
      "outputs": [
        {
          "internalType": "address",
          "name": "",
          "type": "address"
        }
      ],
      "stateMutability": "view",
      "type": "function"
    },
    {
      "inputs": [
        {
          "internalType": "address",
          "name": "owner",
          "type": "address"
        },
        {
          "internalType": "address",
          "name": "operator",
          "type": "address"
        }
      ],
      "name": "isApprovedForAll",
      "outputs": [
        {
          "internalType": "bool",
          "name": "",
          "type": "bool"
        }
      ],
      "stateMutability": "view",
      "type": "function"
    },
    {
      "inputs": [
        {
          "internalType": "uint256",
          "name": "_count",
          "type": "uint256"
        }
      ],
      "name": "mintNFTs",
      "outputs": [],
      "stateMutability": "nonpayable",
      "type": "function"
    },
    {
      "inputs": [],
      "name": "name",
      "outputs": [
        {
          "internalType": "string",
          "name": "",
          "type": "string"
        }
      ],
      "stateMutability": "view",
      "type": "function"
    },
    {
      "inputs": [],
      "name": "owner",
      "outputs": [
        {
          "internalType": "address",
          "name": "",
          "type": "address"
        }
      ],
      "stateMutability": "view",
      "type": "function"
    },
    {
      "inputs": [
        {
          "internalType": "uint256",
          "name": "tokenId",
          "type": "uint256"
        }
      ],
      "name": "ownerOf",
      "outputs": [
        {
          "internalType": "address",
          "name": "",
          "type": "address"
        }
      ],
      "stateMutability": "view",
      "type": "function"
    },
    {
      "inputs": [],
      "name": "renounceOwnership",
      "outputs": [],
      "stateMutability": "nonpayable",
      "type": "function"
    },
    {
      "inputs": [],
      "name": "reserveNFTs",
      "outputs": [],
      "stateMutability": "nonpayable",
      "type": "function"
    },
    {
      "inputs": [
        {
          "internalType": "address",
          "name": "from",
          "type": "address"
        },
        {
          "internalType": "address",
          "name": "to",
          "type": "address"
        },
        {
          "internalType": "uint256",
          "name": "tokenId",
          "type": "uint256"
        }
      ],
      "name": "safeTransferFrom",
      "outputs": [],
      "stateMutability": "nonpayable",
      "type": "function"
    },
    {
      "inputs": [
        {
          "internalType": "address",
          "name": "from",
          "type": "address"
        },
        {
          "internalType": "address",
          "name": "to",
          "type": "address"
        },
        {
          "internalType": "uint256",
          "name": "tokenId",
          "type": "uint256"
        },
        {
          "internalType": "bytes",
          "name": "_data",
          "type": "bytes"
        }
      ],
      "name": "safeTransferFrom",
      "outputs": [],
      "stateMutability": "nonpayable",
      "type": "function"
    },
    {
      "inputs": [
        {
          "internalType": "address",
          "name": "operator",
          "type": "address"
        },
        {
          "internalType": "bool",
          "name": "approved",
          "type": "bool"
        }
      ],
      "name": "setApprovalForAll",
      "outputs": [],
      "stateMutability": "nonpayable",
      "type": "function"
    },
    {
      "inputs": [
        {
          "internalType": "string",
          "name": "_baseTokenURI",
          "type": "string"
        }
      ],
      "name": "setBaseURI",
      "outputs": [],
      "stateMutability": "nonpayable",
      "type": "function"
    },
    {
      "inputs": [
        {
          "internalType": "bytes4",
          "name": "interfaceId",
          "type": "bytes4"
        }
      ],
      "name": "supportsInterface",
      "outputs": [
        {
          "internalType": "bool",
          "name": "",
          "type": "bool"
        }
      ],
      "stateMutability": "view",
      "type": "function"
    },
    {
      "inputs": [],
      "name": "symbol",
      "outputs": [
        {
          "internalType": "string",
          "name": "",
          "type": "string"
        }
      ],
      "stateMutability": "view",
      "type": "function"
    },
    {
      "inputs": [
        {
          "internalType": "uint256",
          "name": "index",
          "type": "uint256"
        }
      ],
      "name": "tokenByIndex",
      "outputs": [
        {
          "internalType": "uint256",
          "name": "",
          "type": "uint256"
        }
      ],
      "stateMutability": "view",
      "type": "function"
    },
    {
      "inputs": [
        {
          "internalType": "address",
          "name": "owner",
          "type": "address"
        },
        {
          "internalType": "uint256",
          "name": "index",
          "type": "uint256"
        }
      ],
      "name": "tokenOfOwnerByIndex",
      "outputs": [
        {
          "internalType": "uint256",
          "name": "",
          "type": "uint256"
        }
      ],
      "stateMutability": "view",
      "type": "function"
    },
    {
      "inputs": [
        {
          "internalType": "uint256",
          "name": "tokenId",
          "type": "uint256"
        }
      ],
      "name": "tokenURI",
      "outputs": [
        {
          "internalType": "string",
          "name": "",
          "type": "string"
        }
      ],
      "stateMutability": "view",
      "type": "function"
    },
    {
      "inputs": [
        {
          "internalType": "address",
          "name": "_owner",
          "type": "address"
        }
      ],
      "name": "tokensOfOwner",
      "outputs": [
        {
          "internalType": "uint256[]",
          "name": "",
          "type": "uint256[]"
        }
      ],
      "stateMutability": "view",
      "type": "function"
    },
    {
      "inputs": [],
      "name": "totalSupply",
      "outputs": [
        {
          "internalType": "uint256",
          "name": "",
          "type": "uint256"
        }
      ],
      "stateMutability": "view",
      "type": "function"
    },
    {
      "inputs": [
        {
          "internalType": "address",
          "name": "from",
          "type": "address"
        },
        {
          "internalType": "address",
          "name": "to",
          "type": "address"
        },
        {
          "internalType": "uint256",
          "name": "tokenId",
          "type": "uint256"
        }
      ],
      "name": "transferFrom",
      "outputs": [],
      "stateMutability": "nonpayable",
      "type": "function"
    },
    {
      "inputs": [
        {
          "internalType": "address",
          "name": "newOwner",
          "type": "address"
        }
      ],
      "name": "transferOwnership",
      "outputs": [],
      "stateMutability": "nonpayable",
      "type": "function"
    },
    {
      "inputs": [],
      "name": "withdraw",
      "outputs": [],
      "stateMutability": "payable",
      "type": "function"
    }
  ],
  "bytecode": "0x60806040523480156200001157600080fd5b5060405162004164380380620041648339818101604052810190620000379190620003d4565b6040518060400160405280600581526020017f44534e46540000000000000000000000000000000000000000000000000000008152506040518060400160405280600581526020017f44534e46540000000000000000000000000000000000000000000000000000008152508160009080519060200190620000bb929190620002b2565b508060019080519060200190620000d4929190620002b2565b505050620000f7620000eb6200010f60201b60201c565b6200011760201b60201c565b6200010881620001dd60201b60201c565b506200060c565b600033905090565b6000600a60009054906101000a900473ffffffffffffffffffffffffffffffffffffffff16905081600a60006101000a81548173ffffffffffffffffffffffffffffffffffffffff021916908373ffffffffffffffffffffffffffffffffffffffff1602179055508173ffffffffffffffffffffffffffffffffffffffff168173ffffffffffffffffffffffffffffffffffffffff167f8be0079c531659141344cd1fd0a4f28419497f9722a3daafe3b4186f6b6457e060405160405180910390a35050565b620001ed6200010f60201b60201c565b73ffffffffffffffffffffffffffffffffffffffff16620002136200028860201b60201c565b73ffffffffffffffffffffffffffffffffffffffff16146200026c576040517f08c379a0000000000000000000000000000000000000000000000000000000008152600401620002639062000440565b60405180910390fd5b80600c908051906020019062000284929190620002b2565b5050565b6000600a60009054906101000a900473ffffffffffffffffffffffffffffffffffffffff16905090565b828054620002c09062000508565b90600052602060002090601f016020900481019282620002e4576000855562000330565b82601f10620002ff57805160ff191683800117855562000330565b8280016001018555821562000330579182015b828111156200032f57825182559160200191906001019062000312565b5b5090506200033f919062000343565b5090565b5b808211156200035e57600081600090555060010162000344565b5090565b60006200037962000373846200048b565b62000462565b9050828152602081018484840111156200039257600080fd5b6200039f848285620004d2565b509392505050565b600082601f830112620003b957600080fd5b8151620003cb84826020860162000362565b91505092915050565b600060208284031215620003e757600080fd5b600082015167ffffffffffffffff8111156200040257600080fd5b6200041084828501620003a7565b91505092915050565b600062000428602083620004c1565b91506200043582620005e3565b602082019050919050565b600060208201905081810360008301526200045b8162000419565b9050919050565b60006200046e62000481565b90506200047c82826200053e565b919050565b6000604051905090565b600067ffffffffffffffff821115620004a957620004a8620005a3565b5b620004b482620005d2565b9050602081019050919050565b600082825260208201905092915050565b60005b83811015620004f2578082015181840152602081019050620004d5565b8381111562000502576000848401525b50505050565b600060028204905060018216806200052157607f821691505b6020821081141562000538576200053762000574565b5b50919050565b6200054982620005d2565b810181811067ffffffffffffffff821117156200056b576200056a620005a3565b5b80604052505050565b7f4e487b7100000000000000000000000000000000000000000000000000000000600052602260045260246000fd5b7f4e487b7100000000000000000000000000000000000000000000000000000000600052604160045260246000fd5b6000601f19601f8301169050919050565b7f4f776e61626c653a2063616c6c6572206973206e6f7420746865206f776e6572600082015250565b613b48806200061c6000396000f3fe6080604052600436106101815760003560e01c806355f804b3116100d157806395d89b411161008a578063c87b56dd11610064578063c87b56dd1461055f578063d547cfb71461059c578063e985e9c5146105c7578063f2fde38b1461060457610181565b806395d89b41146104e2578063a22cb4651461050d578063b88d4fde1461053657610181565b806355f804b3146103c05780636352211e146103e957806370a0823114610426578063715018a6146104635780638462151c1461047a5780638da5cb5b146104b757610181565b806318160ddd1161013e5780633b4b1381116101185780633b4b1381146103275780633ccfd60b1461035057806342842e0e1461035a5780634f6ccce71461038357610181565b806318160ddd1461029657806323b872dd146102c15780632f745c59146102ea57610181565b806301ffc9a71461018657806306fdde03146101c3578063081812fc146101ee578063095ea7b31461022b57806309d42b3014610254578063144100c71461027f575b600080fd5b34801561019257600080fd5b506101ad60048036038101906101a891906128e2565b61062d565b6040516101ba9190612e62565b60405180910390f35b3480156101cf57600080fd5b506101d86106a7565b6040516101e59190612e7d565b60405180910390f35b3480156101fa57600080fd5b5061021560048036038101906102109190612975565b610739565b6040516102229190612dd9565b60405180910390f35b34801561023757600080fd5b50610252600480360381019061024d91906128a6565b6107be565b005b34801561026057600080fd5b506102696108d6565b604051610276919061313f565b60405180910390f35b34801561028b57600080fd5b506102946108db565b005b3480156102a257600080fd5b506102ab610961565b6040516102b8919061313f565b60405180910390f35b3480156102cd57600080fd5b506102e860048036038101906102e391906127a0565b61096e565b005b3480156102f657600080fd5b50610311600480360381019061030c91906128a6565b6109ce565b60405161031e919061313f565b60405180910390f35b34801561033357600080fd5b5061034e60048036038101906103499190612975565b610a73565b005b610358610aed565b005b34801561036657600080fd5b50610381600480360381019061037c91906127a0565b610c61565b005b34801561038f57600080fd5b506103aa60048036038101906103a59190612975565b610c81565b6040516103b7919061313f565b60405180910390f35b3480156103cc57600080fd5b506103e760048036038101906103e29190612934565b610d18565b005b3480156103f557600080fd5b50610410600480360381019061040b9190612975565b610dae565b60405161041d9190612dd9565b60405180910390f35b34801561043257600080fd5b5061044d6004803603810190610448919061273b565b610e60565b60405161045a919061313f565b60405180910390f35b34801561046f57600080fd5b50610478610f18565b005b34801561048657600080fd5b506104a1600480360381019061049c919061273b565b610fa0565b6040516104ae9190612e40565b60405180910390f35b3480156104c357600080fd5b506104cc61109a565b6040516104d99190612dd9565b60405180910390f35b3480156104ee57600080fd5b506104f76110c4565b6040516105049190612e7d565b60405180910390f35b34801561051957600080fd5b50610534600480360381019061052f919061286a565b611156565b005b34801561054257600080fd5b5061055d600480360381019061055891906127ef565b61116c565b005b34801561056b57600080fd5b5061058660048036038101906105819190612975565b6111ce565b6040516105939190612e7d565b60405180910390f35b3480156105a857600080fd5b506105b1611238565b6040516105be9190612e7d565b60405180910390f35b3480156105d357600080fd5b506105ee60048036038101906105e99190612764565b6112c6565b6040516105fb9190612e62565b60405180910390f35b34801561061057600080fd5b5061062b6004803603810190610626919061273b565b61135a565b005b60007f780e9d63000000000000000000000000000000000000000000000000000000007bffffffffffffffffffffffffffffffffffffffffffffffffffffffff1916827bffffffffffffffffffffffffffffffffffffffffffffffffffffffff191614806106a0575061069f82611452565b5b9050919050565b6060600080546106b69061339d565b80601f01602080910402602001604051908101604052809291908181526020018280546106e29061339d565b801561072f5780601f106107045761010080835404028352916020019161072f565b820191906000526020600020905b81548152906001019060200180831161071257829003601f168201915b5050505050905090565b600061074482611534565b610783576040517f08c379a000000000000000000000000000000000000000000000000000000000815260040161077a9061303f565b60405180910390fd5b6004600083815260200190815260200160002060009054906101000a900473ffffffffffffffffffffffffffffffffffffffff169050919050565b60006107c982610dae565b90508073ffffffffffffffffffffffffffffffffffffffff168373ffffffffffffffffffffffffffffffffffffffff16141561083a576040517f08c379a0000000000000000000000000000000000000000000000000000000008152600401610831906130bf565b60405180910390fd5b8073ffffffffffffffffffffffffffffffffffffffff166108596115a0565b73ffffffffffffffffffffffffffffffffffffffff1614806108885750610887816108826115a0565b6112c6565b5b6108c7576040517f08c379a00000000000000000000000000000000000000000000000000000000081526004016108be90612f9f565b60405180910390fd5b6108d183836115a8565b505050565b600181565b6108e36115a0565b73ffffffffffffffffffffffffffffffffffffffff1661090161109a565b73ffffffffffffffffffffffffffffffffffffffff1614610957576040517f08c379a000000000000000000000000000000000000000000000000000000000815260040161094e9061305f565b60405180910390fd5b61095f611661565b565b6000600880549050905090565b61097f6109796115a0565b82611686565b6109be576040517f08c379a00000000000000000000000000000000000000000000000000000000081526004016109b5906130ff565b60405180910390fd5b6109c9838383611764565b505050565b60006109d983610e60565b8210610a1a576040517f08c379a0000000000000000000000000000000000000000000000000000000008152600401610a1190612e9f565b60405180910390fd5b600660008473ffffffffffffffffffffffffffffffffffffffff1673ffffffffffffffffffffffffffffffffffffffff168152602001908152602001600020600083815260200190815260200160002054905092915050565b600081118015610a84575060018111155b610ac3576040517f08c379a0000000000000000000000000000000000000000000000000000000008152600401610aba90612f5f565b60405180910390fd5b60005b81811015610ae957610ad6611661565b8080610ae190613400565b915050610ac6565b5050565b610af56115a0565b73ffffffffffffffffffffffffffffffffffffffff16610b1361109a565b73ffffffffffffffffffffffffffffffffffffffff1614610b69576040517f08c379a0000000000000000000000000000000000000000000000000000000008152600401610b609061305f565b60405180910390fd5b600047905060008111610bb1576040517f08c379a0000000000000000000000000000000000000000000000000000000008152600401610ba89061301f565b60405180910390fd5b60003373ffffffffffffffffffffffffffffffffffffffff1682604051610bd790612dc4565b60006040518083038185875af1925050503d8060008114610c14576040519150601f19603f3d011682016040523d82523d6000602084013e610c19565b606091505b5050905080610c5d576040517f08c379a0000000000000000000000000000000000000000000000000000000008152600401610c54906130df565b60405180910390fd5b5050565b610c7c8383836040518060200160405280600081525061116c565b505050565b6000610c8b610961565b8210610ccc576040517f08c379a0000000000000000000000000000000000000000000000000000000008152600401610cc39061311f565b60405180910390fd5b60088281548110610d06577f4e487b7100000000000000000000000000000000000000000000000000000000600052603260045260246000fd5b90600052602060002001549050919050565b610d206115a0565b73ffffffffffffffffffffffffffffffffffffffff16610d3e61109a565b73ffffffffffffffffffffffffffffffffffffffff1614610d94576040517f08c379a0000000000000000000000000000000000000000000000000000000008152600401610d8b9061305f565b60405180910390fd5b80600c9080519060200190610daa92919061255f565b5050565b6000806002600084815260200190815260200160002060009054906101000a900473ffffffffffffffffffffffffffffffffffffffff169050600073ffffffffffffffffffffffffffffffffffffffff168173ffffffffffffffffffffffffffffffffffffffff161415610e57576040517f08c379a0000000000000000000000000000000000000000000000000000000008152600401610e4e90612fdf565b60405180910390fd5b80915050919050565b60008073ffffffffffffffffffffffffffffffffffffffff168273ffffffffffffffffffffffffffffffffffffffff161415610ed1576040517f08c379a0000000000000000000000000000000000000000000000000000000008152600401610ec890612fbf565b60405180910390fd5b600360008373ffffffffffffffffffffffffffffffffffffffff1673ffffffffffffffffffffffffffffffffffffffff168152602001908152602001600020549050919050565b610f206115a0565b73ffffffffffffffffffffffffffffffffffffffff16610f3e61109a565b73ffffffffffffffffffffffffffffffffffffffff1614610f94576040517f08c379a0000000000000000000000000000000000000000000000000000000008152600401610f8b9061305f565b60405180910390fd5b610f9e60006119c0565b565b60606000610fad83610e60565b905060008167ffffffffffffffff811115610ff1577f4e487b7100000000000000000000000000000000000000000000000000000000600052604160045260246000fd5b60405190808252806020026020018201604052801561101f5781602001602082028036833780820191505090505b50905060005b8281101561108f5761103785826109ce565b828281518110611070577f4e487b7100000000000000000000000000000000000000000000000000000000600052603260045260246000fd5b602002602001018181525050808061108790613400565b915050611025565b508092505050919050565b6000600a60009054906101000a900473ffffffffffffffffffffffffffffffffffffffff16905090565b6060600180546110d39061339d565b80601f01602080910402602001604051908101604052809291908181526020018280546110ff9061339d565b801561114c5780601f106111215761010080835404028352916020019161114c565b820191906000526020600020905b81548152906001019060200180831161112f57829003601f168201915b5050505050905090565b6111686111616115a0565b8383611a86565b5050565b61117d6111776115a0565b83611686565b6111bc576040517f08c379a00000000000000000000000000000000000000000000000000000000081526004016111b3906130ff565b60405180910390fd5b6111c884848484611bf3565b50505050565b60606111d982611534565b611218576040517f08c379a000000000000000000000000000000000000000000000000000000000815260040161120f9061309f565b60405180910390fd5b604051806060016040528060358152602001613ade603591399050919050565b600c80546112459061339d565b80601f01602080910402602001604051908101604052809291908181526020018280546112719061339d565b80156112be5780601f10611293576101008083540402835291602001916112be565b820191906000526020600020905b8154815290600101906020018083116112a157829003601f168201915b505050505081565b6000600560008473ffffffffffffffffffffffffffffffffffffffff1673ffffffffffffffffffffffffffffffffffffffff16815260200190815260200160002060008373ffffffffffffffffffffffffffffffffffffffff1673ffffffffffffffffffffffffffffffffffffffff16815260200190815260200160002060009054906101000a900460ff16905092915050565b6113626115a0565b73ffffffffffffffffffffffffffffffffffffffff1661138061109a565b73ffffffffffffffffffffffffffffffffffffffff16146113d6576040517f08c379a00000000000000000000000000000000000000000000000000000000081526004016113cd9061305f565b60405180910390fd5b600073ffffffffffffffffffffffffffffffffffffffff168173ffffffffffffffffffffffffffffffffffffffff161415611446576040517f08c379a000000000000000000000000000000000000000000000000000000000815260040161143d90612edf565b60405180910390fd5b61144f816119c0565b50565b60007f80ac58cd000000000000000000000000000000000000000000000000000000007bffffffffffffffffffffffffffffffffffffffffffffffffffffffff1916827bffffffffffffffffffffffffffffffffffffffffffffffffffffffff1916148061151d57507f5b5e139f000000000000000000000000000000000000000000000000000000007bffffffffffffffffffffffffffffffffffffffffffffffffffffffff1916827bffffffffffffffffffffffffffffffffffffffffffffffffffffffff1916145b8061152d575061152c82611c4f565b5b9050919050565b60008073ffffffffffffffffffffffffffffffffffffffff166002600084815260200190815260200160002060009054906101000a900473ffffffffffffffffffffffffffffffffffffffff1673ffffffffffffffffffffffffffffffffffffffff1614159050919050565b600033905090565b816004600083815260200190815260200160002060006101000a81548173ffffffffffffffffffffffffffffffffffffffff021916908373ffffffffffffffffffffffffffffffffffffffff160217905550808273ffffffffffffffffffffffffffffffffffffffff1661161b83610dae565b73ffffffffffffffffffffffffffffffffffffffff167f8c5be1e5ebec7d5bd14f71427d1e84f3dd0314c0f7b2291e5b200ac8c7c3b92560405160405180910390a45050565b600061166d600b611cb9565b90506116793382611cc7565b611683600b611ce5565b50565b600061169182611534565b6116d0576040517f08c379a00000000000000000000000000000000000000000000000000000000081526004016116c790612f7f565b60405180910390fd5b60006116db83610dae565b90508073ffffffffffffffffffffffffffffffffffffffff168473ffffffffffffffffffffffffffffffffffffffff16148061174a57508373ffffffffffffffffffffffffffffffffffffffff1661173284610739565b73ffffffffffffffffffffffffffffffffffffffff16145b8061175b575061175a81856112c6565b5b91505092915050565b8273ffffffffffffffffffffffffffffffffffffffff1661178482610dae565b73ffffffffffffffffffffffffffffffffffffffff16146117da576040517f08c379a00000000000000000000000000000000000000000000000000000000081526004016117d19061307f565b60405180910390fd5b600073ffffffffffffffffffffffffffffffffffffffff168273ffffffffffffffffffffffffffffffffffffffff16141561184a576040517f08c379a000000000000000000000000000000000000000000000000000000000815260040161184190612f1f565b60405180910390fd5b611855838383611cfb565b6118606000826115a8565b6001600360008573ffffffffffffffffffffffffffffffffffffffff1673ffffffffffffffffffffffffffffffffffffffff16815260200190815260200160002060008282546118b091906132b3565b925050819055506001600360008473ffffffffffffffffffffffffffffffffffffffff1673ffffffffffffffffffffffffffffffffffffffff1681526020019081526020016000206000828254611907919061325d565b92505081905550816002600083815260200190815260200160002060006101000a81548173ffffffffffffffffffffffffffffffffffffffff021916908373ffffffffffffffffffffffffffffffffffffffff160217905550808273ffffffffffffffffffffffffffffffffffffffff168473ffffffffffffffffffffffffffffffffffffffff167fddf252ad1be2c89b69c2b068fc378daa952ba7f163c4a11628f55a4df523b3ef60405160405180910390a4505050565b6000600a60009054906101000a900473ffffffffffffffffffffffffffffffffffffffff16905081600a60006101000a81548173ffffffffffffffffffffffffffffffffffffffff021916908373ffffffffffffffffffffffffffffffffffffffff1602179055508173ffffffffffffffffffffffffffffffffffffffff168173ffffffffffffffffffffffffffffffffffffffff167f8be0079c531659141344cd1fd0a4f28419497f9722a3daafe3b4186f6b6457e060405160405180910390a35050565b8173ffffffffffffffffffffffffffffffffffffffff168373ffffffffffffffffffffffffffffffffffffffff161415611af5576040517f08c379a0000000000000000000000000000000000000000000000000000000008152600401611aec90612f3f565b60405180910390fd5b80600560008573ffffffffffffffffffffffffffffffffffffffff1673ffffffffffffffffffffffffffffffffffffffff16815260200190815260200160002060008473ffffffffffffffffffffffffffffffffffffffff1673ffffffffffffffffffffffffffffffffffffffff16815260200190815260200160002060006101000a81548160ff0219169083151502179055508173ffffffffffffffffffffffffffffffffffffffff168373ffffffffffffffffffffffffffffffffffffffff167f17307eab39ab6107e8899845ad3d59bd9653f200f220920489ca2b5937696c3183604051611be69190612e62565b60405180910390a3505050565b611bfe848484611764565b611c0a84848484611e0f565b611c49576040517f08c379a0000000000000000000000000000000000000000000000000000000008152600401611c4090612ebf565b60405180910390fd5b50505050565b60007f01ffc9a7000000000000000000000000000000000000000000000000000000007bffffffffffffffffffffffffffffffffffffffffffffffffffffffff1916827bffffffffffffffffffffffffffffffffffffffffffffffffffffffff1916149050919050565b600081600001549050919050565b611ce1828260405180602001604052806000815250611fa6565b5050565b6001816000016000828254019250508190555050565b611d06838383612001565b600073ffffffffffffffffffffffffffffffffffffffff168373ffffffffffffffffffffffffffffffffffffffff161415611d4957611d4481612006565b611d88565b8173ffffffffffffffffffffffffffffffffffffffff168373ffffffffffffffffffffffffffffffffffffffff1614611d8757611d86838261204f565b5b5b600073ffffffffffffffffffffffffffffffffffffffff168273ffffffffffffffffffffffffffffffffffffffff161415611dcb57611dc6816121bc565b611e0a565b8273ffffffffffffffffffffffffffffffffffffffff168273ffffffffffffffffffffffffffffffffffffffff1614611e0957611e0882826122ff565b5b5b505050565b6000611e308473ffffffffffffffffffffffffffffffffffffffff1661237e565b15611f99578373ffffffffffffffffffffffffffffffffffffffff1663150b7a02611e596115a0565b8786866040518563ffffffff1660e01b8152600401611e7b9493929190612df4565b602060405180830381600087803b158015611e9557600080fd5b505af1925050508015611ec657506040513d601f19601f82011682018060405250810190611ec3919061290b565b60015b611f49573d8060008114611ef6576040519150601f19603f3d011682016040523d82523d6000602084013e611efb565b606091505b50600081511415611f41576040517f08c379a0000000000000000000000000000000000000000000000000000000008152600401611f3890612ebf565b60405180910390fd5b805181602001fd5b63150b7a0260e01b7bffffffffffffffffffffffffffffffffffffffffffffffffffffffff1916817bffffffffffffffffffffffffffffffffffffffffffffffffffffffff191614915050611f9e565b600190505b949350505050565b611fb08383612391565b611fbd6000848484611e0f565b611ffc576040517f08c379a0000000000000000000000000000000000000000000000000000000008152600401611ff390612ebf565b60405180910390fd5b505050565b505050565b6008805490506009600083815260200190815260200160002081905550600881908060018154018082558091505060019003906000526020600020016000909190919091505550565b6000600161205c84610e60565b61206691906132b3565b905060006007600084815260200190815260200160002054905081811461214b576000600660008673ffffffffffffffffffffffffffffffffffffffff1673ffffffffffffffffffffffffffffffffffffffff168152602001908152602001600020600084815260200190815260200160002054905080600660008773ffffffffffffffffffffffffffffffffffffffff1673ffffffffffffffffffffffffffffffffffffffff168152602001908152602001600020600084815260200190815260200160002081905550816007600083815260200190815260200160002081905550505b6007600084815260200190815260200160002060009055600660008573ffffffffffffffffffffffffffffffffffffffff1673ffffffffffffffffffffffffffffffffffffffff16815260200190815260200160002060008381526020019081526020016000206000905550505050565b600060016008805490506121d091906132b3565b9050600060096000848152602001908152602001600020549050600060088381548110612226577f4e487b7100000000000000000000000000000000000000000000000000000000600052603260045260246000fd5b90600052602060002001549050806008838154811061226e577f4e487b7100000000000000000000000000000000000000000000000000000000600052603260045260246000fd5b9060005260206000200181905550816009600083815260200190815260200160002081905550600960008581526020019081526020016000206000905560088054806122e3577f4e487b7100000000000000000000000000000000000000000000000000000000600052603160045260246000fd5b6001900381819060005260206000200160009055905550505050565b600061230a83610e60565b905081600660008573ffffffffffffffffffffffffffffffffffffffff1673ffffffffffffffffffffffffffffffffffffffff168152602001908152602001600020600083815260200190815260200160002081905550806007600084815260200190815260200160002081905550505050565b600080823b905060008111915050919050565b600073ffffffffffffffffffffffffffffffffffffffff168273ffffffffffffffffffffffffffffffffffffffff161415612401576040517f08c379a00000000000000000000000000000000000000000000000000000000081526004016123f890612fff565b60405180910390fd5b61240a81611534565b1561244a576040517f08c379a000000000000000000000000000000000000000000000000000000000815260040161244190612eff565b60405180910390fd5b61245660008383611cfb565b6001600360008473ffffffffffffffffffffffffffffffffffffffff1673ffffffffffffffffffffffffffffffffffffffff16815260200190815260200160002060008282546124a6919061325d565b92505081905550816002600083815260200190815260200160002060006101000a81548173ffffffffffffffffffffffffffffffffffffffff021916908373ffffffffffffffffffffffffffffffffffffffff160217905550808273ffffffffffffffffffffffffffffffffffffffff16600073ffffffffffffffffffffffffffffffffffffffff167fddf252ad1be2c89b69c2b068fc378daa952ba7f163c4a11628f55a4df523b3ef60405160405180910390a45050565b82805461256b9061339d565b90600052602060002090601f01602090048101928261258d57600085556125d4565b82601f106125a657805160ff19168380011785556125d4565b828001600101855582156125d4579182015b828111156125d35782518255916020019190600101906125b8565b5b5090506125e191906125e5565b5090565b5b808211156125fe5760008160009055506001016125e6565b5090565b60006126156126108461317f565b61315a565b90508281526020810184848401111561262d57600080fd5b61263884828561335b565b509392505050565b600061265361264e846131b0565b61315a565b90508281526020810184848401111561266b57600080fd5b61267684828561335b565b509392505050565b60008135905061268d81613a81565b92915050565b6000813590506126a281613a98565b92915050565b6000813590506126b781613aaf565b92915050565b6000815190506126cc81613aaf565b92915050565b600082601f8301126126e357600080fd5b81356126f3848260208601612602565b91505092915050565b600082601f83011261270d57600080fd5b813561271d848260208601612640565b91505092915050565b60008135905061273581613ac6565b92915050565b60006020828403121561274d57600080fd5b600061275b8482850161267e565b91505092915050565b6000806040838503121561277757600080fd5b60006127858582860161267e565b92505060206127968582860161267e565b9150509250929050565b6000806000606084860312156127b557600080fd5b60006127c38682870161267e565b93505060206127d48682870161267e565b92505060406127e586828701612726565b9150509250925092565b6000806000806080858703121561280557600080fd5b60006128138782880161267e565b94505060206128248782880161267e565b935050604061283587828801612726565b925050606085013567ffffffffffffffff81111561285257600080fd5b61285e878288016126d2565b91505092959194509250565b6000806040838503121561287d57600080fd5b600061288b8582860161267e565b925050602061289c85828601612693565b9150509250929050565b600080604083850312156128b957600080fd5b60006128c78582860161267e565b92505060206128d885828601612726565b9150509250929050565b6000602082840312156128f457600080fd5b6000612902848285016126a8565b91505092915050565b60006020828403121561291d57600080fd5b600061292b848285016126bd565b91505092915050565b60006020828403121561294657600080fd5b600082013567ffffffffffffffff81111561296057600080fd5b61296c848285016126fc565b91505092915050565b60006020828403121561298757600080fd5b600061299584828501612726565b91505092915050565b60006129aa8383612da6565b60208301905092915050565b6129bf816132e7565b82525050565b60006129d0826131f1565b6129da818561321f565b93506129e5836131e1565b8060005b83811015612a165781516129fd888261299e565b9750612a0883613212565b9250506001810190506129e9565b5085935050505092915050565b612a2c816132f9565b82525050565b6000612a3d826131fc565b612a478185613230565b9350612a5781856020860161336a565b612a60816134d6565b840191505092915050565b6000612a7682613207565b612a80818561324c565b9350612a9081856020860161336a565b612a99816134d6565b840191505092915050565b6000612ab1602b8361324c565b9150612abc826134e7565b604082019050919050565b6000612ad460328361324c565b9150612adf82613536565b604082019050919050565b6000612af760268361324c565b9150612b0282613585565b604082019050919050565b6000612b1a601c8361324c565b9150612b25826135d4565b602082019050919050565b6000612b3d60248361324c565b9150612b48826135fd565b604082019050919050565b6000612b6060198361324c565b9150612b6b8261364c565b602082019050919050565b6000612b8360258361324c565b9150612b8e82613675565b604082019050919050565b6000612ba6602c8361324c565b9150612bb1826136c4565b604082019050919050565b6000612bc960388361324c565b9150612bd482613713565b604082019050919050565b6000612bec602a8361324c565b9150612bf782613762565b604082019050919050565b6000612c0f60298361324c565b9150612c1a826137b1565b604082019050919050565b6000612c3260208361324c565b9150612c3d82613800565b602082019050919050565b6000612c5560198361324c565b9150612c6082613829565b602082019050919050565b6000612c78602c8361324c565b9150612c8382613852565b604082019050919050565b6000612c9b60208361324c565b9150612ca6826138a1565b602082019050919050565b6000612cbe60298361324c565b9150612cc9826138ca565b604082019050919050565b6000612ce1602f8361324c565b9150612cec82613919565b604082019050919050565b6000612d0460218361324c565b9150612d0f82613968565b604082019050919050565b6000612d27600083613241565b9150612d32826139b7565b600082019050919050565b6000612d4a60108361324c565b9150612d55826139ba565b602082019050919050565b6000612d6d60318361324c565b9150612d78826139e3565b604082019050919050565b6000612d90602c8361324c565b9150612d9b82613a32565b604082019050919050565b612daf81613351565b82525050565b612dbe81613351565b82525050565b6000612dcf82612d1a565b9150819050919050565b6000602082019050612dee60008301846129b6565b92915050565b6000608082019050612e0960008301876129b6565b612e1660208301866129b6565b612e236040830185612db5565b8181036060830152612e358184612a32565b905095945050505050565b60006020820190508181036000830152612e5a81846129c5565b905092915050565b6000602082019050612e776000830184612a23565b92915050565b60006020820190508181036000830152612e978184612a6b565b905092915050565b60006020820190508181036000830152612eb881612aa4565b9050919050565b60006020820190508181036000830152612ed881612ac7565b9050919050565b60006020820190508181036000830152612ef881612aea565b9050919050565b60006020820190508181036000830152612f1881612b0d565b9050919050565b60006020820190508181036000830152612f3881612b30565b9050919050565b60006020820190508181036000830152612f5881612b53565b9050919050565b60006020820190508181036000830152612f7881612b76565b9050919050565b60006020820190508181036000830152612f9881612b99565b9050919050565b60006020820190508181036000830152612fb881612bbc565b9050919050565b60006020820190508181036000830152612fd881612bdf565b9050919050565b60006020820190508181036000830152612ff881612c02565b9050919050565b6000602082019050818103600083015261301881612c25565b9050919050565b6000602082019050818103600083015261303881612c48565b9050919050565b6000602082019050818103600083015261305881612c6b565b9050919050565b6000602082019050818103600083015261307881612c8e565b9050919050565b6000602082019050818103600083015261309881612cb1565b9050919050565b600060208201905081810360008301526130b881612cd4565b9050919050565b600060208201905081810360008301526130d881612cf7565b9050919050565b600060208201905081810360008301526130f881612d3d565b9050919050565b6000602082019050818103600083015261311881612d60565b9050919050565b6000602082019050818103600083015261313881612d83565b9050919050565b60006020820190506131546000830184612db5565b92915050565b6000613164613175565b905061317082826133cf565b919050565b6000604051905090565b600067ffffffffffffffff82111561319a576131996134a7565b5b6131a3826134d6565b9050602081019050919050565b600067ffffffffffffffff8211156131cb576131ca6134a7565b5b6131d4826134d6565b9050602081019050919050565b6000819050602082019050919050565b600081519050919050565b600081519050919050565b600081519050919050565b6000602082019050919050565b600082825260208201905092915050565b600082825260208201905092915050565b600081905092915050565b600082825260208201905092915050565b600061326882613351565b915061327383613351565b9250827fffffffffffffffffffffffffffffffffffffffffffffffffffffffffffffffff038211156132a8576132a7613449565b5b828201905092915050565b60006132be82613351565b91506132c983613351565b9250828210156132dc576132db613449565b5b828203905092915050565b60006132f282613331565b9050919050565b60008115159050919050565b60007fffffffff0000000000000000000000000000000000000000000000000000000082169050919050565b600073ffffffffffffffffffffffffffffffffffffffff82169050919050565b6000819050919050565b82818337600083830152505050565b60005b8381101561338857808201518184015260208101905061336d565b83811115613397576000848401525b50505050565b600060028204905060018216806133b557607f821691505b602082108114156133c9576133c8613478565b5b50919050565b6133d8826134d6565b810181811067ffffffffffffffff821117156133f7576133f66134a7565b5b80604052505050565b600061340b82613351565b91507fffffffffffffffffffffffffffffffffffffffffffffffffffffffffffffffff82141561343e5761343d613449565b5b600182019050919050565b7f4e487b7100000000000000000000000000000000000000000000000000000000600052601160045260246000fd5b7f4e487b7100000000000000000000000000000000000000000000000000000000600052602260045260246000fd5b7f4e487b7100000000000000000000000000000000000000000000000000000000600052604160045260246000fd5b6000601f19601f8301169050919050565b7f455243373231456e756d657261626c653a206f776e657220696e646578206f7560008201527f74206f6620626f756e6473000000000000000000000000000000000000000000602082015250565b7f4552433732313a207472616e7366657220746f206e6f6e20455243373231526560008201527f63656976657220696d706c656d656e7465720000000000000000000000000000602082015250565b7f4f776e61626c653a206e6577206f776e657220697320746865207a65726f206160008201527f6464726573730000000000000000000000000000000000000000000000000000602082015250565b7f4552433732313a20746f6b656e20616c7265616479206d696e74656400000000600082015250565b7f4552433732313a207472616e7366657220746f20746865207a65726f2061646460008201527f7265737300000000000000000000000000000000000000000000000000000000602082015250565b7f4552433732313a20617070726f766520746f2063616c6c657200000000000000600082015250565b7f43616e6e6f74206d696e7420737065636966696564206e756d626572206f662060008201527f4e4654732e000000000000000000000000000000000000000000000000000000602082015250565b7f4552433732313a206f70657261746f7220717565727920666f72206e6f6e657860008201527f697374656e7420746f6b656e0000000000000000000000000000000000000000602082015250565b7f4552433732313a20617070726f76652063616c6c6572206973206e6f74206f7760008201527f6e6572206e6f7220617070726f76656420666f7220616c6c0000000000000000602082015250565b7f4552433732313a2062616c616e636520717565727920666f7220746865207a6560008201527f726f206164647265737300000000000000000000000000000000000000000000602082015250565b7f4552433732313a206f776e657220717565727920666f72206e6f6e657869737460008201527f656e7420746f6b656e0000000000000000000000000000000000000000000000602082015250565b7f4552433732313a206d696e7420746f20746865207a65726f2061646472657373600082015250565b7f4e6f206574686572206c65667420746f20776974686472617700000000000000600082015250565b7f4552433732313a20617070726f76656420717565727920666f72206e6f6e657860008201527f697374656e7420746f6b656e0000000000000000000000000000000000000000602082015250565b7f4f776e61626c653a2063616c6c6572206973206e6f7420746865206f776e6572600082015250565b7f4552433732313a207472616e73666572206f6620746f6b656e2074686174206960008201527f73206e6f74206f776e0000000000000000000000000000000000000000000000602082015250565b7f4552433732314d657461646174613a2055524920717565727920666f72206e6f60008201527f6e6578697374656e7420746f6b656e0000000000000000000000000000000000602082015250565b7f4552433732313a20617070726f76616c20746f2063757272656e74206f776e6560008201527f7200000000000000000000000000000000000000000000000000000000000000602082015250565b50565b7f5472616e73666572206661696c65642e00000000000000000000000000000000600082015250565b7f4552433732313a207472616e736665722063616c6c6572206973206e6f74206f60008201527f776e6572206e6f7220617070726f766564000000000000000000000000000000602082015250565b7f455243373231456e756d657261626c653a20676c6f62616c20696e646578206f60008201527f7574206f6620626f756e64730000000000000000000000000000000000000000602082015250565b613a8a816132e7565b8114613a9557600080fd5b50565b613aa1816132f9565b8114613aac57600080fd5b50565b613ab881613305565b8114613ac357600080fd5b50565b613acf81613351565b8114613ada57600080fd5b5056fe697066733a2f2f516d6555374b5632325a6f4a626e445739386557625032583232736d4c5042776531793267753462525439437365a26469706673582212207687b5d517f975b210a6131a51c98ea2379e97652ec4ebc84e739302d217047f64736f6c63430008040033",
  "linkReferences": {},
  "deployedLinkReferences": {}
}